{
  "_format": "hh-sol-artifact-1",
  "contractName": "ChallengeRegistry",
  "sourceName": "contracts/ChallengeRegistry.sol",
  "abi": [
    {
      "inputs": [
        {
          "internalType": "address",
          "name": "_paymentTokenAddress",
          "type": "address"
        },
        {
          "internalType": "address",
          "name": "_treasury",
          "type": "address"
        },
        {
          "internalType": "address",
          "name": "initialOwner",
          "type": "address"
        }
      ],
      "stateMutability": "nonpayable",
      "type": "constructor"
    },
    {
      "inputs": [
        {
          "internalType": "address",
          "name": "owner",
          "type": "address"
        }
      ],
      "name": "OwnableInvalidOwner",
      "type": "error"
    },
    {
      "inputs": [
        {
          "internalType": "address",
          "name": "account",
          "type": "address"
        }
      ],
      "name": "OwnableUnauthorizedAccount",
      "type": "error"
    },
    {
      "anonymous": false,
      "inputs": [
        {
          "indexed": true,
          "internalType": "uint256",
          "name": "id",
          "type": "uint256"
        },
        {
          "indexed": false,
          "internalType": "string",
          "name": "metadataURI",
          "type": "string"
        },
        {
          "indexed": false,
          "internalType": "uint256",
          "name": "rewardAmount",
          "type": "uint256"
        },
        {
          "indexed": false,
          "internalType": "uint256",
          "name": "minStake",
          "type": "uint256"
        }
      ],
      "name": "ChallengeCreated",
      "type": "event"
    },
    {
      "anonymous": false,
      "inputs": [
        {
          "indexed": true,
          "internalType": "uint256",
          "name": "challengeId",
          "type": "uint256"
        },
        {
          "indexed": true,
          "internalType": "address",
          "name": "user",
          "type": "address"
        },
        {
          "indexed": false,
          "internalType": "bool",
          "name": "success",
          "type": "bool"
        },
        {
          "indexed": false,
          "internalType": "uint256",
          "name": "payoutOrSlashed",
          "type": "uint256"
        }
      ],
      "name": "ChallengeResolved",
      "type": "event"
    },
    {
      "anonymous": false,
      "inputs": [
        {
          "indexed": true,
          "internalType": "address",
          "name": "previousOwner",
          "type": "address"
        },
        {
          "indexed": true,
          "internalType": "address",
          "name": "newOwner",
          "type": "address"
        }
      ],
      "name": "OwnershipTransferred",
      "type": "event"
    },
    {
      "anonymous": false,
      "inputs": [
        {
          "indexed": true,
          "internalType": "uint256",
          "name": "challengeId",
          "type": "uint256"
        },
        {
          "indexed": true,
          "internalType": "address",
          "name": "user",
          "type": "address"
        },
        {
          "indexed": false,
          "internalType": "string",
          "name": "proofURI",
          "type": "string"
        }
      ],
      "name": "ProofSubmitted",
      "type": "event"
    },
    {
      "anonymous": false,
      "inputs": [
        {
          "indexed": true,
          "internalType": "uint256",
          "name": "challengeId",
          "type": "uint256"
        },
        {
          "indexed": true,
          "internalType": "address",
          "name": "user",
          "type": "address"
        },
        {
          "indexed": false,
          "internalType": "uint256",
          "name": "stakeAmount",
          "type": "uint256"
        }
      ],
      "name": "UserJoined",
      "type": "event"
    },
    {
      "inputs": [
        {
          "internalType": "uint256",
          "name": "",
          "type": "uint256"
        }
      ],
      "name": "challenges",
      "outputs": [
        {
          "internalType": "uint256",
          "name": "id",
          "type": "uint256"
        },
        {
          "internalType": "string",
          "name": "metadataURI",
          "type": "string"
        },
        {
          "internalType": "uint256",
          "name": "rewardAmount",
          "type": "uint256"
        },
        {
          "internalType": "uint256",
          "name": "minStake",
          "type": "uint256"
        },
        {
          "internalType": "bool",
          "name": "isActive",
          "type": "bool"
        }
      ],
      "stateMutability": "view",
      "type": "function"
    },
    {
      "inputs": [
        {
          "internalType": "string",
          "name": "metadataURI",
          "type": "string"
        },
        {
          "internalType": "uint256",
          "name": "rewardAmount",
          "type": "uint256"
        },
        {
          "internalType": "uint256",
          "name": "minStake",
          "type": "uint256"
        }
      ],
      "name": "createChallenge",
      "outputs": [],
      "stateMutability": "nonpayable",
      "type": "function"
    },
    {
      "inputs": [
        {
          "internalType": "uint256",
          "name": "amount",
          "type": "uint256"
        }
      ],
      "name": "depositRewards",
      "outputs": [],
      "stateMutability": "nonpayable",
      "type": "function"
    },
    {
      "inputs": [
        {
          "internalType": "uint256",
          "name": "",
          "type": "uint256"
        },
        {
          "internalType": "address",
          "name": "",
          "type": "address"
        }
      ],
      "name": "hasJoined",
      "outputs": [
        {
          "internalType": "bool",
          "name": "",
          "type": "bool"
        }
      ],
      "stateMutability": "view",
      "type": "function"
    },
    {
      "inputs": [
        {
          "internalType": "uint256",
          "name": "challengeId",
          "type": "uint256"
        }
      ],
      "name": "joinChallenge",
      "outputs": [],
      "stateMutability": "nonpayable",
      "type": "function"
    },
    {
      "inputs": [],
      "name": "nextChallengeId",
      "outputs": [
        {
          "internalType": "uint256",
          "name": "",
          "type": "uint256"
        }
      ],
      "stateMutability": "view",
      "type": "function"
    },
    {
      "inputs": [],
      "name": "owner",
      "outputs": [
        {
          "internalType": "address",
          "name": "",
          "type": "address"
        }
      ],
      "stateMutability": "view",
      "type": "function"
    },
    {
      "inputs": [],
      "name": "paymentToken",
      "outputs": [
        {
          "internalType": "contract IERC20",
          "name": "",
          "type": "address"
        }
      ],
      "stateMutability": "view",
      "type": "function"
    },
    {
      "inputs": [],
      "name": "renounceOwnership",
      "outputs": [],
      "stateMutability": "nonpayable",
      "type": "function"
    },
    {
      "inputs": [
        {
          "internalType": "uint256",
          "name": "challengeId",
          "type": "uint256"
        },
        {
          "internalType": "address",
          "name": "participant",
          "type": "address"
        },
        {
          "internalType": "bool",
          "name": "success",
          "type": "bool"
        }
      ],
      "name": "resolveChallenge",
      "outputs": [],
      "stateMutability": "nonpayable",
      "type": "function"
    },
    {
      "inputs": [
        {
          "internalType": "uint256",
          "name": "challengeId",
          "type": "uint256"
        },
        {
          "internalType": "string",
          "name": "proofURI",
          "type": "string"
        }
      ],
      "name": "submitProof",
      "outputs": [],
      "stateMutability": "nonpayable",
      "type": "function"
    },
    {
      "inputs": [
        {
          "internalType": "address",
          "name": "newOwner",
          "type": "address"
        }
      ],
      "name": "transferOwnership",
      "outputs": [],
      "stateMutability": "nonpayable",
      "type": "function"
    },
    {
      "inputs": [],
      "name": "treasury",
      "outputs": [
        {
          "internalType": "address",
          "name": "",
          "type": "address"
        }
      ],
      "stateMutability": "view",
      "type": "function"
    },
    {
      "inputs": [
        {
          "internalType": "uint256",
          "name": "",
          "type": "uint256"
        },
        {
          "internalType": "address",
          "name": "",
          "type": "address"
        }
      ],
      "name": "userStakes",
      "outputs": [
        {
          "internalType": "uint256",
          "name": "",
          "type": "uint256"
        }
      ],
      "stateMutability": "view",
      "type": "function"
    }
  ],
  "bytecode": "0x608060405234801561001057600080fd5b5060405161223738038061223783398181016040528101906100329190610266565b80600073ffffffffffffffffffffffffffffffffffffffff168173ffffffffffffffffffffffffffffffffffffffff16036100a55760006040517f1e4fbdf700000000000000000000000000000000000000000000000000000000815260040161009c91906102c8565b60405180910390fd5b6100b48161013f60201b60201c565b5082600660006101000a81548173ffffffffffffffffffffffffffffffffffffffff021916908373ffffffffffffffffffffffffffffffffffffffff16021790555081600160006101000a81548173ffffffffffffffffffffffffffffffffffffffff021916908373ffffffffffffffffffffffffffffffffffffffff1602179055505050506102e3565b60008060009054906101000a900473ffffffffffffffffffffffffffffffffffffffff169050816000806101000a81548173ffffffffffffffffffffffffffffffffffffffff021916908373ffffffffffffffffffffffffffffffffffffffff1602179055508173ffffffffffffffffffffffffffffffffffffffff168173ffffffffffffffffffffffffffffffffffffffff167f8be0079c531659141344cd1fd0a4f28419497f9722a3daafe3b4186f6b6457e060405160405180910390a35050565b600080fd5b600073ffffffffffffffffffffffffffffffffffffffff82169050919050565b600061023382610208565b9050919050565b61024381610228565b811461024e57600080fd5b50565b6000815190506102608161023a565b92915050565b60008060006060848603121561027f5761027e610203565b5b600061028d86828701610251565b935050602061029e86828701610251565b92505060406102af86828701610251565b9150509250925092565b6102c281610228565b82525050565b60006020820190506102dd60008301846102b9565b92915050565b611f45806102f26000396000f3fe608060405234801561001057600080fd5b50600436106100ea5760003560e01c80638da5cb5b1161008c578063e448ee2611610066578063e448ee2614610227578063e899052414610243578063f2fde38b14610273578063fc67aa501461028f576100ea565b80638da5cb5b146101b95780638f1d3776146101d7578063a10a07f71461020b576100ea565b806361d027b3116100c857806361d027b3146101455780636819471914610163578063715018a6146101935780638bdf67f21461019d576100ea565b80631aaaac93146100ef5780632af005101461010b5780633013ce2914610127575b600080fd5b61010960048036038101906101049190611310565b6102ad565b005b6101256004803603810190610120919061137f565b6103a6565b005b61012f6104f9565b60405161013c919061145a565b60405180910390f35b61014d61051f565b60405161015a9190611496565b60405180910390f35b61017d600480360381019061017891906114dd565b610545565b60405161018a9190611538565b60405180910390f35b61019b610574565b005b6101b760048036038101906101b29190611553565b610588565b005b6101c161062e565b6040516101ce9190611496565b60405180910390f35b6101f160048036038101906101ec9190611553565b610657565b60405161020295949392919061160e565b60405180910390f35b61022560048036038101906102209190611694565b610722565b005b610241600480360381019061023c9190611553565b610ba1565b005b61025d600480360381019061025891906114dd565b610f7c565b60405161026a91906116e7565b60405180910390f35b61028d60048036038101906102889190611702565b610fa1565b005b610297611027565b6040516102a491906116e7565b60405180910390f35b6102b561102d565b6000600260008154809291906102ca9061175e565b9190505590506040518060a00160405280828152602001858152602001848152602001838152602001600115158152506003600083815260200190815260200160002060008201518160000155602082015181600101908161032c91906119a8565b50604082015181600201556060820151816003015560808201518160040160006101000a81548160ff021916908315150217905550905050807f5ada7bcb61317fcef34c60f3ed6612f30405f948126c579af585b4608de59bbe85858560405161039893929190611a7a565b60405180910390a250505050565b6004600083815260200190815260200160002060003373ffffffffffffffffffffffffffffffffffffffff1673ffffffffffffffffffffffffffffffffffffffff16815260200190815260200160002060009054906101000a900460ff16610443576040517f08c379a000000000000000000000000000000000000000000000000000000000815260040161043a90611b04565b60405180910390fd5b6003600083815260200190815260200160002060040160009054906101000a900460ff166104a6576040517f08c379a000000000000000000000000000000000000000000000000000000000815260040161049d90611b70565b60405180910390fd5b3373ffffffffffffffffffffffffffffffffffffffff16827fb2217a1ebc8d6435d328a4607aa9709269fe4cb393535a1675721d8431a54018836040516104ed9190611b90565b60405180910390a35050565b600660009054906101000a900473ffffffffffffffffffffffffffffffffffffffff1681565b600160009054906101000a900473ffffffffffffffffffffffffffffffffffffffff1681565b60046020528160005260406000206020528060005260406000206000915091509054906101000a900460ff1681565b61057c61102d565b61058660006110b4565b565b600660009054906101000a900473ffffffffffffffffffffffffffffffffffffffff1673ffffffffffffffffffffffffffffffffffffffff166323b872dd3330846040518463ffffffff1660e01b81526004016105e793929190611bb2565b6020604051808303816000875af1158015610606573d6000803e3d6000fd5b505050506040513d601f19601f8201168201806040525081019061062a9190611bfe565b5050565b60008060009054906101000a900473ffffffffffffffffffffffffffffffffffffffff16905090565b6003602052806000526040600020600091509050806000015490806001018054610680906117d5565b80601f01602080910402602001604051908101604052809291908181526020018280546106ac906117d5565b80156106f95780601f106106ce576101008083540402835291602001916106f9565b820191906000526020600020905b8154815290600101906020018083116106dc57829003601f168201915b5050505050908060020154908060030154908060040160009054906101000a900460ff16905085565b61072a61102d565b6004600084815260200190815260200160002060008373ffffffffffffffffffffffffffffffffffffffff1673ffffffffffffffffffffffffffffffffffffffff16815260200190815260200160002060009054906101000a900460ff166107c7576040517f08c379a00000000000000000000000000000000000000000000000000000000081526004016107be90611c77565b60405180910390fd5b60006005600085815260200190815260200160002060008473ffffffffffffffffffffffffffffffffffffffff1673ffffffffffffffffffffffffffffffffffffffff16815260200190815260200160002054905060006003600086815260200190815260200160002060020154905060006005600087815260200190815260200160002060008673ffffffffffffffffffffffffffffffffffffffff1673ffffffffffffffffffffffffffffffffffffffff168152602001908152602001600020819055508215610a7a57600081836108a19190611c97565b905080600660009054906101000a900473ffffffffffffffffffffffffffffffffffffffff1673ffffffffffffffffffffffffffffffffffffffff166370a08231306040518263ffffffff1660e01b81526004016108ff9190611496565b602060405180830381865afa15801561091c573d6000803e3d6000fd5b505050506040513d601f19601f820116820180604052508101906109409190611ce0565b1015610981576040517f08c379a000000000000000000000000000000000000000000000000000000000815260040161097890611d59565b60405180910390fd5b600660009054906101000a900473ffffffffffffffffffffffffffffffffffffffff1673ffffffffffffffffffffffffffffffffffffffff1663a9059cbb86836040518363ffffffff1660e01b81526004016109de929190611d79565b6020604051808303816000875af11580156109fd573d6000803e3d6000fd5b505050506040513d601f19601f82011682018060405250810190610a219190611bfe565b508473ffffffffffffffffffffffffffffffffffffffff16867f4e30b71db37785bb35c5188bc9264c8cb15ab07b5426ac9e1e51fd0807f9d9df600184604051610a6c929190611da2565b60405180910390a350610b9a565b6000821115610b4757600660009054906101000a900473ffffffffffffffffffffffffffffffffffffffff1673ffffffffffffffffffffffffffffffffffffffff1663a9059cbb600160009054906101000a900473ffffffffffffffffffffffffffffffffffffffff16846040518363ffffffff1660e01b8152600401610b02929190611d79565b6020604051808303816000875af1158015610b21573d6000803e3d6000fd5b505050506040513d601f19601f82011682018060405250810190610b459190611bfe565b505b8373ffffffffffffffffffffffffffffffffffffffff16857f4e30b71db37785bb35c5188bc9264c8cb15ab07b5426ac9e1e51fd0807f9d9df600085604051610b91929190611da2565b60405180910390a35b5050505050565b6000600360008381526020019081526020016000206040518060a001604052908160008201548152602001600182018054610bdb906117d5565b80601f0160208091040260200160405190810160405280929190818152602001828054610c07906117d5565b8015610c545780601f10610c2957610100808354040283529160200191610c54565b820191906000526020600020905b815481529060010190602001808311610c3757829003601f168201915b5050505050815260200160028201548152602001600382015481526020016004820160009054906101000a900460ff16151515158152505090508060800151610cd2576040517f08c379a0000000000000000000000000000000000000000000000000000000008152600401610cc990611e17565b60405180910390fd5b6004600083815260200190815260200160002060003373ffffffffffffffffffffffffffffffffffffffff1673ffffffffffffffffffffffffffffffffffffffff16815260200190815260200160002060009054906101000a900460ff1615610d70576040517f08c379a0000000000000000000000000000000000000000000000000000000008152600401610d6790611e83565b60405180910390fd5b6000816060015190506000811115610ebf576000600660009054906101000a900473ffffffffffffffffffffffffffffffffffffffff1673ffffffffffffffffffffffffffffffffffffffff166323b872dd3330856040518463ffffffff1660e01b8152600401610de393929190611bb2565b6020604051808303816000875af1158015610e02573d6000803e3d6000fd5b505050506040513d601f19601f82011682018060405250810190610e269190611bfe565b905080610e68576040517f08c379a0000000000000000000000000000000000000000000000000000000008152600401610e5f90611eef565b60405180910390fd5b816005600086815260200190815260200160002060003373ffffffffffffffffffffffffffffffffffffffff1673ffffffffffffffffffffffffffffffffffffffff16815260200190815260200160002081905550505b60016004600085815260200190815260200160002060003373ffffffffffffffffffffffffffffffffffffffff1673ffffffffffffffffffffffffffffffffffffffff16815260200190815260200160002060006101000a81548160ff0219169083151502179055503373ffffffffffffffffffffffffffffffffffffffff16837f7b30c1a9d40c0d9714d001f23c2c4139f105da5fbed06fa421676194a8d6e80283604051610f6f91906116e7565b60405180910390a3505050565b6005602052816000526040600020602052806000526040600020600091509150505481565b610fa961102d565b600073ffffffffffffffffffffffffffffffffffffffff168173ffffffffffffffffffffffffffffffffffffffff160361101b5760006040517f1e4fbdf70000000000000000000000000000000000000000000000000000000081526004016110129190611496565b60405180910390fd5b611024816110b4565b50565b60025481565b611035611178565b73ffffffffffffffffffffffffffffffffffffffff1661105361062e565b73ffffffffffffffffffffffffffffffffffffffff16146110b257611076611178565b6040517f118cdaa70000000000000000000000000000000000000000000000000000000081526004016110a99190611496565b60405180910390fd5b565b60008060009054906101000a900473ffffffffffffffffffffffffffffffffffffffff169050816000806101000a81548173ffffffffffffffffffffffffffffffffffffffff021916908373ffffffffffffffffffffffffffffffffffffffff1602179055508173ffffffffffffffffffffffffffffffffffffffff168173ffffffffffffffffffffffffffffffffffffffff167f8be0079c531659141344cd1fd0a4f28419497f9722a3daafe3b4186f6b6457e060405160405180910390a35050565b600033905090565b6000604051905090565b600080fd5b600080fd5b600080fd5b600080fd5b6000601f19601f8301169050919050565b7f4e487b7100000000000000000000000000000000000000000000000000000000600052604160045260246000fd5b6111e78261119e565b810181811067ffffffffffffffff82111715611206576112056111af565b5b80604052505050565b6000611219611180565b905061122582826111de565b919050565b600067ffffffffffffffff821115611245576112446111af565b5b61124e8261119e565b9050602081019050919050565b82818337600083830152505050565b600061127d6112788461122a565b61120f565b90508281526020810184848401111561129957611298611199565b5b6112a484828561125b565b509392505050565b600082601f8301126112c1576112c0611194565b5b81356112d184826020860161126a565b91505092915050565b6000819050919050565b6112ed816112da565b81146112f857600080fd5b50565b60008135905061130a816112e4565b92915050565b6000806000606084860312156113295761132861118a565b5b600084013567ffffffffffffffff8111156113475761134661118f565b5b611353868287016112ac565b9350506020611364868287016112fb565b9250506040611375868287016112fb565b9150509250925092565b600080604083850312156113965761139561118a565b5b60006113a4858286016112fb565b925050602083013567ffffffffffffffff8111156113c5576113c461118f565b5b6113d1858286016112ac565b9150509250929050565b600073ffffffffffffffffffffffffffffffffffffffff82169050919050565b6000819050919050565b600061142061141b611416846113db565b6113fb565b6113db565b9050919050565b600061143282611405565b9050919050565b600061144482611427565b9050919050565b61145481611439565b82525050565b600060208201905061146f600083018461144b565b92915050565b6000611480826113db565b9050919050565b61149081611475565b82525050565b60006020820190506114ab6000830184611487565b92915050565b6114ba81611475565b81146114c557600080fd5b50565b6000813590506114d7816114b1565b92915050565b600080604083850312156114f4576114f361118a565b5b6000611502858286016112fb565b9250506020611513858286016114c8565b9150509250929050565b60008115159050919050565b6115328161151d565b82525050565b600060208201905061154d6000830184611529565b92915050565b6000602082840312156115695761156861118a565b5b6000611577848285016112fb565b91505092915050565b611589816112da565b82525050565b600081519050919050565b600082825260208201905092915050565b60005b838110156115c95780820151818401526020810190506115ae565b60008484015250505050565b60006115e08261158f565b6115ea818561159a565b93506115fa8185602086016115ab565b6116038161119e565b840191505092915050565b600060a0820190506116236000830188611580565b818103602083015261163581876115d5565b90506116446040830186611580565b6116516060830185611580565b61165e6080830184611529565b9695505050505050565b6116718161151d565b811461167c57600080fd5b50565b60008135905061168e81611668565b92915050565b6000806000606084860312156116ad576116ac61118a565b5b60006116bb868287016112fb565b93505060206116cc868287016114c8565b92505060406116dd8682870161167f565b9150509250925092565b60006020820190506116fc6000830184611580565b92915050565b6000602082840312156117185761171761118a565b5b6000611726848285016114c8565b91505092915050565b7f4e487b7100000000000000000000000000000000000000000000000000000000600052601160045260246000fd5b6000611769826112da565b91507fffffffffffffffffffffffffffffffffffffffffffffffffffffffffffffffff820361179b5761179a61172f565b5b600182019050919050565b7f4e487b7100000000000000000000000000000000000000000000000000000000600052602260045260246000fd5b600060028204905060018216806117ed57607f821691505b602082108103611800576117ff6117a6565b5b50919050565b60008190508160005260206000209050919050565b60006020601f8301049050919050565b600082821b905092915050565b6000600883026118687fffffffffffffffffffffffffffffffffffffffffffffffffffffffffffffffff8261182b565b611872868361182b565b95508019841693508086168417925050509392505050565b60006118a56118a061189b846112da565b6113fb565b6112da565b9050919050565b6000819050919050565b6118bf8361188a565b6118d36118cb826118ac565b848454611838565b825550505050565b600090565b6118e86118db565b6118f38184846118b6565b505050565b5b818110156119175761190c6000826118e0565b6001810190506118f9565b5050565b601f82111561195c5761192d81611806565b6119368461181b565b81016020851015611945578190505b6119596119518561181b565b8301826118f8565b50505b505050565b600082821c905092915050565b600061197f60001984600802611961565b1980831691505092915050565b6000611998838361196e565b9150826002028217905092915050565b6119b18261158f565b67ffffffffffffffff8111156119ca576119c96111af565b5b6119d482546117d5565b6119df82828561191b565b600060209050601f831160018114611a125760008415611a00578287015190505b611a0a858261198c565b865550611a72565b601f198416611a2086611806565b60005b82811015611a4857848901518255600182019150602085019450602081019050611a23565b86831015611a655784890151611a61601f89168261196e565b8355505b6001600288020188555050505b505050505050565b60006060820190508181036000830152611a9481866115d5565b9050611aa36020830185611580565b611ab06040830184611580565b949350505050565b7f4e6f742061207061727469636970616e74000000000000000000000000000000600082015250565b6000611aee60118361159a565b9150611af982611ab8565b602082019050919050565b60006020820190508181036000830152611b1d81611ae1565b9050919050565b7f4368616c6c656e676520656e6465640000000000000000000000000000000000600082015250565b6000611b5a600f8361159a565b9150611b6582611b24565b602082019050919050565b60006020820190508181036000830152611b8981611b4d565b9050919050565b60006020820190508181036000830152611baa81846115d5565b905092915050565b6000606082019050611bc76000830186611487565b611bd46020830185611487565b611be16040830184611580565b949350505050565b600081519050611bf881611668565b92915050565b600060208284031215611c1457611c1361118a565b5b6000611c2284828501611be9565b91505092915050565b7f55736572206e6f7420696e206368616c6c656e67650000000000000000000000600082015250565b6000611c6160158361159a565b9150611c6c82611c2b565b602082019050919050565b60006020820190508181036000830152611c9081611c54565b9050919050565b6000611ca2826112da565b9150611cad836112da565b9250828201905080821115611cc557611cc461172f565b5b92915050565b600081519050611cda816112e4565b92915050565b600060208284031215611cf657611cf561118a565b5b6000611d0484828501611ccb565b91505092915050565b7f496e73756666696369656e7420636f6e74726163742062616c616e6365000000600082015250565b6000611d43601d8361159a565b9150611d4e82611d0d565b602082019050919050565b60006020820190508181036000830152611d7281611d36565b9050919050565b6000604082019050611d8e6000830185611487565b611d9b6020830184611580565b9392505050565b6000604082019050611db76000830185611529565b611dc46020830184611580565b9392505050565b7f4368616c6c656e6765206e6f7420616374697665000000000000000000000000600082015250565b6000611e0160148361159a565b9150611e0c82611dcb565b602082019050919050565b60006020820190508181036000830152611e3081611df4565b9050919050565b7f416c7265616479206a6f696e6564000000000000000000000000000000000000600082015250565b6000611e6d600e8361159a565b9150611e7882611e37565b602082019050919050565b60006020820190508181036000830152611e9c81611e60565b9050919050565b7f5374616b65207472616e73666572206661696c65640000000000000000000000600082015250565b6000611ed960158361159a565b9150611ee482611ea3565b602082019050919050565b60006020820190508181036000830152611f0881611ecc565b905091905056fea26469706673582212207573d3453a68f42a95ea4daa9d26fd16fecdfa01424007c20ed3f17fbf02a50764736f6c634300081c0033",
  "linkReferences": {},
  "deployedLinkReferences": {}
}