{
  "_format": "hh-sol-artifact-1",
  "contractName": "ChallengeRegistry",
  "sourceName": "contracts/ChallengeRegistry.sol",
  "abi": [
    {
      "inputs": [
        {
          "internalType": "address",
          "name": "_paymentTokenAddress",
          "type": "address"
        },
        {
          "internalType": "address",
          "name": "_treasury",
          "type": "address"
        },
        {
          "internalType": "address",
          "name": "initialOwner",
          "type": "address"
        }
      ],
      "stateMutability": "nonpayable",
      "type": "constructor"
    },
    {
      "inputs": [
        {
          "internalType": "address",
          "name": "owner",
          "type": "address"
        }
      ],
      "name": "OwnableInvalidOwner",
      "type": "error"
    },
    {
      "inputs": [
        {
          "internalType": "address",
          "name": "account",
          "type": "address"
        }
      ],
      "name": "OwnableUnauthorizedAccount",
      "type": "error"
    },
    {
      "anonymous": false,
      "inputs": [
        {
          "indexed": true,
          "internalType": "uint256",
          "name": "id",
          "type": "uint256"
        },
        {
          "indexed": false,
          "internalType": "string",
          "name": "metadataURI",
          "type": "string"
        },
        {
          "indexed": false,
          "internalType": "uint256",
          "name": "rewardAmount",
          "type": "uint256"
        },
        {
          "indexed": false,
          "internalType": "uint256",
          "name": "minStake",
          "type": "uint256"
        }
      ],
      "name": "ChallengeCreated",
      "type": "event"
    },
    {
      "anonymous": false,
      "inputs": [
        {
          "indexed": true,
          "internalType": "uint256",
          "name": "challengeId",
          "type": "uint256"
        },
        {
          "indexed": true,
          "internalType": "address",
          "name": "user",
          "type": "address"
        },
        {
          "indexed": false,
          "internalType": "bool",
          "name": "success",
          "type": "bool"
        },
        {
          "indexed": false,
          "internalType": "uint256",
          "name": "payoutOrSlashed",
          "type": "uint256"
        }
      ],
      "name": "ChallengeResolved",
      "type": "event"
    },
    {
      "anonymous": false,
      "inputs": [
        {
          "indexed": true,
          "internalType": "address",
          "name": "previousOwner",
          "type": "address"
        },
        {
          "indexed": true,
          "internalType": "address",
          "name": "newOwner",
          "type": "address"
        }
      ],
      "name": "OwnershipTransferred",
      "type": "event"
    },
    {
      "anonymous": false,
      "inputs": [
        {
          "indexed": true,
          "internalType": "uint256",
          "name": "challengeId",
          "type": "uint256"
        },
        {
          "indexed": true,
          "internalType": "address",
          "name": "user",
          "type": "address"
        },
        {
          "indexed": false,
          "internalType": "string",
          "name": "proofURI",
          "type": "string"
        }
      ],
      "name": "ProofSubmitted",
      "type": "event"
    },
    {
      "anonymous": false,
      "inputs": [
        {
          "indexed": true,
          "internalType": "uint256",
          "name": "challengeId",
          "type": "uint256"
        },
        {
          "indexed": true,
          "internalType": "address",
          "name": "user",
          "type": "address"
        },
        {
          "indexed": false,
          "internalType": "uint256",
          "name": "stakeAmount",
          "type": "uint256"
        }
      ],
      "name": "UserJoined",
      "type": "event"
    },
    {
      "inputs": [
        {
          "internalType": "uint256",
          "name": "",
          "type": "uint256"
        }
      ],
      "name": "challenges",
      "outputs": [
        {
          "internalType": "uint256",
          "name": "id",
          "type": "uint256"
        },
        {
          "internalType": "string",
          "name": "metadataURI",
          "type": "string"
        },
        {
          "internalType": "uint256",
          "name": "rewardAmount",
          "type": "uint256"
        },
        {
          "internalType": "uint256",
          "name": "minStake",
          "type": "uint256"
        },
        {
          "internalType": "bool",
          "name": "isActive",
          "type": "bool"
        }
      ],
      "stateMutability": "view",
      "type": "function"
    },
    {
      "inputs": [
        {
          "internalType": "string",
          "name": "metadataURI",
          "type": "string"
        },
        {
          "internalType": "uint256",
          "name": "rewardAmount",
          "type": "uint256"
        },
        {
          "internalType": "uint256",
          "name": "minStake",
          "type": "uint256"
        }
      ],
      "name": "createChallenge",
      "outputs": [],
      "stateMutability": "nonpayable",
      "type": "function"
    },
    {
      "inputs": [
        {
          "internalType": "uint256",
          "name": "amount",
          "type": "uint256"
        }
      ],
      "name": "depositRewards",
      "outputs": [],
      "stateMutability": "nonpayable",
      "type": "function"
    },
    {
      "inputs": [
        {
          "internalType": "uint256",
          "name": "",
          "type": "uint256"
        },
        {
          "internalType": "address",
          "name": "",
          "type": "address"
        }
      ],
      "name": "hasJoined",
      "outputs": [
        {
          "internalType": "bool",
          "name": "",
          "type": "bool"
        }
      ],
      "stateMutability": "view",
      "type": "function"
    },
    {
      "inputs": [
        {
          "internalType": "uint256",
          "name": "",
          "type": "uint256"
        },
        {
          "internalType": "address",
          "name": "",
          "type": "address"
        }
      ],
      "name": "hasSubmitted",
      "outputs": [
        {
          "internalType": "bool",
          "name": "",
          "type": "bool"
        }
      ],
      "stateMutability": "view",
      "type": "function"
    },
    {
      "inputs": [
        {
          "internalType": "uint256",
          "name": "challengeId",
          "type": "uint256"
        },
        {
          "internalType": "uint256",
          "name": "stakeAmount",
          "type": "uint256"
        }
      ],
      "name": "joinChallenge",
      "outputs": [],
      "stateMutability": "nonpayable",
      "type": "function"
    },
    {
      "inputs": [],
      "name": "nextChallengeId",
      "outputs": [
        {
          "internalType": "uint256",
          "name": "",
          "type": "uint256"
        }
      ],
      "stateMutability": "view",
      "type": "function"
    },
    {
      "inputs": [],
      "name": "owner",
      "outputs": [
        {
          "internalType": "address",
          "name": "",
          "type": "address"
        }
      ],
      "stateMutability": "view",
      "type": "function"
    },
    {
      "inputs": [],
      "name": "paymentToken",
      "outputs": [
        {
          "internalType": "contract IERC20",
          "name": "",
          "type": "address"
        }
      ],
      "stateMutability": "view",
      "type": "function"
    },
    {
      "inputs": [],
      "name": "renounceOwnership",
      "outputs": [],
      "stateMutability": "nonpayable",
      "type": "function"
    },
    {
      "inputs": [
        {
          "internalType": "uint256",
          "name": "challengeId",
          "type": "uint256"
        },
        {
          "internalType": "address",
          "name": "participant",
          "type": "address"
        },
        {
          "internalType": "bool",
          "name": "success",
          "type": "bool"
        }
      ],
      "name": "resolveChallenge",
      "outputs": [],
      "stateMutability": "nonpayable",
      "type": "function"
    },
    {
      "inputs": [
        {
          "internalType": "uint256",
          "name": "challengeId",
          "type": "uint256"
        },
        {
          "internalType": "string",
          "name": "proofURI",
          "type": "string"
        }
      ],
      "name": "submitProof",
      "outputs": [],
      "stateMutability": "nonpayable",
      "type": "function"
    },
    {
      "inputs": [
        {
          "internalType": "address",
          "name": "newOwner",
          "type": "address"
        }
      ],
      "name": "transferOwnership",
      "outputs": [],
      "stateMutability": "nonpayable",
      "type": "function"
    },
    {
      "inputs": [],
      "name": "treasury",
      "outputs": [
        {
          "internalType": "address",
          "name": "",
          "type": "address"
        }
      ],
      "stateMutability": "view",
      "type": "function"
    },
    {
      "inputs": [
        {
          "internalType": "uint256",
          "name": "",
          "type": "uint256"
        },
        {
          "internalType": "address",
          "name": "",
          "type": "address"
        }
      ],
      "name": "userStakes",
      "outputs": [
        {
          "internalType": "uint256",
          "name": "",
          "type": "uint256"
        }
      ],
      "stateMutability": "view",
      "type": "function"
    }
  ],
  "bytecode": "0x608060405234801561001057600080fd5b506040516124fe3803806124fe83398181016040528101906100329190610266565b80600073ffffffffffffffffffffffffffffffffffffffff168173ffffffffffffffffffffffffffffffffffffffff16036100a55760006040517f1e4fbdf700000000000000000000000000000000000000000000000000000000815260040161009c91906102c8565b60405180910390fd5b6100b48161013f60201b60201c565b5082600760006101000a81548173ffffffffffffffffffffffffffffffffffffffff021916908373ffffffffffffffffffffffffffffffffffffffff16021790555081600160006101000a81548173ffffffffffffffffffffffffffffffffffffffff021916908373ffffffffffffffffffffffffffffffffffffffff1602179055505050506102e3565b60008060009054906101000a900473ffffffffffffffffffffffffffffffffffffffff169050816000806101000a81548173ffffffffffffffffffffffffffffffffffffffff021916908373ffffffffffffffffffffffffffffffffffffffff1602179055508173ffffffffffffffffffffffffffffffffffffffff168173ffffffffffffffffffffffffffffffffffffffff167f8be0079c531659141344cd1fd0a4f28419497f9722a3daafe3b4186f6b6457e060405160405180910390a35050565b600080fd5b600073ffffffffffffffffffffffffffffffffffffffff82169050919050565b600061023382610208565b9050919050565b61024381610228565b811461024e57600080fd5b50565b6000815190506102608161023a565b92915050565b60008060006060848603121561027f5761027e610203565b5b600061028d86828701610251565b935050602061029e86828701610251565b92505060406102af86828701610251565b9150509250925092565b6102c281610228565b82525050565b60006020820190506102dd60008301846102b9565b92915050565b61220c806102f26000396000f3fe608060405234801561001057600080fd5b50600436106100f55760003560e01c80638da5cb5b11610097578063bd5dab1211610066578063bd5dab1214610262578063e89905241461027e578063f2fde38b146102ae578063fc67aa50146102ca576100f5565b80638da5cb5b146101c45780638f1d3776146101e2578063a10a07f714610216578063a57d380614610232576100f5565b806361d027b3116100d357806361d027b314610150578063681947191461016e578063715018a61461019e5780638bdf67f2146101a8576100f5565b80631aaaac93146100fa5780632af00510146101165780633013ce2914610132575b600080fd5b610114600480360381019061010f91906114bf565b6102e8565b005b610130600480360381019061012b919061152e565b6103e1565b005b61013a61063b565b6040516101479190611609565b60405180910390f35b610158610661565b6040516101659190611645565b60405180910390f35b6101886004803603810190610183919061168c565b610687565b60405161019591906116e7565b60405180910390f35b6101a66106b6565b005b6101c260048036038101906101bd9190611702565b6106ca565b005b6101cc610770565b6040516101d99190611645565b60405180910390f35b6101fc60048036038101906101f79190611702565b610799565b60405161020d9594939291906117bd565b60405180910390f35b610230600480360381019061022b9190611843565b610864565b005b61024c6004803603810190610247919061168c565b610ce3565b60405161025991906116e7565b60405180910390f35b61027c60048036038101906102779190611896565b610d12565b005b6102986004803603810190610293919061168c565b61112b565b6040516102a591906118d6565b60405180910390f35b6102c860048036038101906102c391906118f1565b611150565b005b6102d26111d6565b6040516102df91906118d6565b60405180910390f35b6102f06111dc565b6000600260008154809291906103059061194d565b9190505590506040518060a0016040528082815260200185815260200184815260200183815260200160011515815250600360008381526020019081526020016000206000820151816000015560208201518160010190816103679190611b97565b50604082015181600201556060820151816003015560808201518160040160006101000a81548160ff021916908315150217905550905050807f5ada7bcb61317fcef34c60f3ed6612f30405f948126c579af585b4608de59bbe8585856040516103d393929190611c69565b60405180910390a250505050565b6004600083815260200190815260200160002060003373ffffffffffffffffffffffffffffffffffffffff1673ffffffffffffffffffffffffffffffffffffffff16815260200190815260200160002060009054906101000a900460ff1661047e576040517f08c379a000000000000000000000000000000000000000000000000000000000815260040161047590611cf3565b60405180910390fd5b6003600083815260200190815260200160002060040160009054906101000a900460ff166104e1576040517f08c379a00000000000000000000000000000000000000000000000000000000081526004016104d890611d5f565b60405180910390fd5b6006600083815260200190815260200160002060003373ffffffffffffffffffffffffffffffffffffffff1673ffffffffffffffffffffffffffffffffffffffff16815260200190815260200160002060009054906101000a900460ff161561057f576040517f08c379a000000000000000000000000000000000000000000000000000000000815260040161057690611dcb565b60405180910390fd5b60016006600084815260200190815260200160002060003373ffffffffffffffffffffffffffffffffffffffff1673ffffffffffffffffffffffffffffffffffffffff16815260200190815260200160002060006101000a81548160ff0219169083151502179055503373ffffffffffffffffffffffffffffffffffffffff16827fb2217a1ebc8d6435d328a4607aa9709269fe4cb393535a1675721d8431a540188360405161062f9190611deb565b60405180910390a35050565b600760009054906101000a900473ffffffffffffffffffffffffffffffffffffffff1681565b600160009054906101000a900473ffffffffffffffffffffffffffffffffffffffff1681565b60046020528160005260406000206020528060005260406000206000915091509054906101000a900460ff1681565b6106be6111dc565b6106c86000611263565b565b600760009054906101000a900473ffffffffffffffffffffffffffffffffffffffff1673ffffffffffffffffffffffffffffffffffffffff166323b872dd3330846040518463ffffffff1660e01b815260040161072993929190611e0d565b6020604051808303816000875af1158015610748573d6000803e3d6000fd5b505050506040513d601f19601f8201168201806040525081019061076c9190611e59565b5050565b60008060009054906101000a900473ffffffffffffffffffffffffffffffffffffffff16905090565b60036020528060005260406000206000915090508060000154908060010180546107c2906119c4565b80601f01602080910402602001604051908101604052809291908181526020018280546107ee906119c4565b801561083b5780601f106108105761010080835404028352916020019161083b565b820191906000526020600020905b81548152906001019060200180831161081e57829003601f168201915b5050505050908060020154908060030154908060040160009054906101000a900460ff16905085565b61086c6111dc565b6004600084815260200190815260200160002060008373ffffffffffffffffffffffffffffffffffffffff1673ffffffffffffffffffffffffffffffffffffffff16815260200190815260200160002060009054906101000a900460ff16610909576040517f08c379a000000000000000000000000000000000000000000000000000000000815260040161090090611ed2565b60405180910390fd5b60006005600085815260200190815260200160002060008473ffffffffffffffffffffffffffffffffffffffff1673ffffffffffffffffffffffffffffffffffffffff16815260200190815260200160002054905060006003600086815260200190815260200160002060020154905060006005600087815260200190815260200160002060008673ffffffffffffffffffffffffffffffffffffffff1673ffffffffffffffffffffffffffffffffffffffff168152602001908152602001600020819055508215610bbc57600081836109e39190611ef2565b905080600760009054906101000a900473ffffffffffffffffffffffffffffffffffffffff1673ffffffffffffffffffffffffffffffffffffffff166370a08231306040518263ffffffff1660e01b8152600401610a419190611645565b602060405180830381865afa158015610a5e573d6000803e3d6000fd5b505050506040513d601f19601f82011682018060405250810190610a829190611f3b565b1015610ac3576040517f08c379a0000000000000000000000000000000000000000000000000000000008152600401610aba90611fb4565b60405180910390fd5b600760009054906101000a900473ffffffffffffffffffffffffffffffffffffffff1673ffffffffffffffffffffffffffffffffffffffff1663a9059cbb86836040518363ffffffff1660e01b8152600401610b20929190611fd4565b6020604051808303816000875af1158015610b3f573d6000803e3d6000fd5b505050506040513d601f19601f82011682018060405250810190610b639190611e59565b508473ffffffffffffffffffffffffffffffffffffffff16867f4e30b71db37785bb35c5188bc9264c8cb15ab07b5426ac9e1e51fd0807f9d9df600184604051610bae929190611ffd565b60405180910390a350610cdc565b6000821115610c8957600760009054906101000a900473ffffffffffffffffffffffffffffffffffffffff1673ffffffffffffffffffffffffffffffffffffffff1663a9059cbb600160009054906101000a900473ffffffffffffffffffffffffffffffffffffffff16846040518363ffffffff1660e01b8152600401610c44929190611fd4565b6020604051808303816000875af1158015610c63573d6000803e3d6000fd5b505050506040513d601f19601f82011682018060405250810190610c879190611e59565b505b8373ffffffffffffffffffffffffffffffffffffffff16857f4e30b71db37785bb35c5188bc9264c8cb15ab07b5426ac9e1e51fd0807f9d9df600085604051610cd3929190611ffd565b60405180910390a35b5050505050565b60066020528160005260406000206020528060005260406000206000915091509054906101000a900460ff1681565b6000600360008481526020019081526020016000206040518060a001604052908160008201548152602001600182018054610d4c906119c4565b80601f0160208091040260200160405190810160405280929190818152602001828054610d78906119c4565b8015610dc55780601f10610d9a57610100808354040283529160200191610dc5565b820191906000526020600020905b815481529060010190602001808311610da857829003601f168201915b5050505050815260200160028201548152602001600382015481526020016004820160009054906101000a900460ff16151515158152505090508060800151610e43576040517f08c379a0000000000000000000000000000000000000000000000000000000008152600401610e3a90612072565b60405180910390fd5b6004600084815260200190815260200160002060003373ffffffffffffffffffffffffffffffffffffffff1673ffffffffffffffffffffffffffffffffffffffff16815260200190815260200160002060009054906101000a900460ff1615610ee1576040517f08c379a0000000000000000000000000000000000000000000000000000000008152600401610ed8906120de565b60405180910390fd5b8060600151821015610f28576040517f08c379a0000000000000000000000000000000000000000000000000000000008152600401610f1f9061214a565b60405180910390fd5b600082111561106e576000600760009054906101000a900473ffffffffffffffffffffffffffffffffffffffff1673ffffffffffffffffffffffffffffffffffffffff166323b872dd3330866040518463ffffffff1660e01b8152600401610f9293929190611e0d565b6020604051808303816000875af1158015610fb1573d6000803e3d6000fd5b505050506040513d601f19601f82011682018060405250810190610fd59190611e59565b905080611017576040517f08c379a000000000000000000000000000000000000000000000000000000000815260040161100e906121b6565b60405180910390fd5b826005600086815260200190815260200160002060003373ffffffffffffffffffffffffffffffffffffffff1673ffffffffffffffffffffffffffffffffffffffff16815260200190815260200160002081905550505b60016004600085815260200190815260200160002060003373ffffffffffffffffffffffffffffffffffffffff1673ffffffffffffffffffffffffffffffffffffffff16815260200190815260200160002060006101000a81548160ff0219169083151502179055503373ffffffffffffffffffffffffffffffffffffffff16837f7b30c1a9d40c0d9714d001f23c2c4139f105da5fbed06fa421676194a8d6e8028460405161111e91906118d6565b60405180910390a3505050565b6005602052816000526040600020602052806000526040600020600091509150505481565b6111586111dc565b600073ffffffffffffffffffffffffffffffffffffffff168173ffffffffffffffffffffffffffffffffffffffff16036111ca5760006040517f1e4fbdf70000000000000000000000000000000000000000000000000000000081526004016111c19190611645565b60405180910390fd5b6111d381611263565b50565b60025481565b6111e4611327565b73ffffffffffffffffffffffffffffffffffffffff16611202610770565b73ffffffffffffffffffffffffffffffffffffffff161461126157611225611327565b6040517f118cdaa70000000000000000000000000000000000000000000000000000000081526004016112589190611645565b60405180910390fd5b565b60008060009054906101000a900473ffffffffffffffffffffffffffffffffffffffff169050816000806101000a81548173ffffffffffffffffffffffffffffffffffffffff021916908373ffffffffffffffffffffffffffffffffffffffff1602179055508173ffffffffffffffffffffffffffffffffffffffff168173ffffffffffffffffffffffffffffffffffffffff167f8be0079c531659141344cd1fd0a4f28419497f9722a3daafe3b4186f6b6457e060405160405180910390a35050565b600033905090565b6000604051905090565b600080fd5b600080fd5b600080fd5b600080fd5b6000601f19601f8301169050919050565b7f4e487b7100000000000000000000000000000000000000000000000000000000600052604160045260246000fd5b6113968261134d565b810181811067ffffffffffffffff821117156113b5576113b461135e565b5b80604052505050565b60006113c861132f565b90506113d4828261138d565b919050565b600067ffffffffffffffff8211156113f4576113f361135e565b5b6113fd8261134d565b9050602081019050919050565b82818337600083830152505050565b600061142c611427846113d9565b6113be565b90508281526020810184848401111561144857611447611348565b5b61145384828561140a565b509392505050565b600082601f8301126114705761146f611343565b5b8135611480848260208601611419565b91505092915050565b6000819050919050565b61149c81611489565b81146114a757600080fd5b50565b6000813590506114b981611493565b92915050565b6000806000606084860312156114d8576114d7611339565b5b600084013567ffffffffffffffff8111156114f6576114f561133e565b5b6115028682870161145b565b9350506020611513868287016114aa565b9250506040611524868287016114aa565b9150509250925092565b6000806040838503121561154557611544611339565b5b6000611553858286016114aa565b925050602083013567ffffffffffffffff8111156115745761157361133e565b5b6115808582860161145b565b9150509250929050565b600073ffffffffffffffffffffffffffffffffffffffff82169050919050565b6000819050919050565b60006115cf6115ca6115c58461158a565b6115aa565b61158a565b9050919050565b60006115e1826115b4565b9050919050565b60006115f3826115d6565b9050919050565b611603816115e8565b82525050565b600060208201905061161e60008301846115fa565b92915050565b600061162f8261158a565b9050919050565b61163f81611624565b82525050565b600060208201905061165a6000830184611636565b92915050565b61166981611624565b811461167457600080fd5b50565b60008135905061168681611660565b92915050565b600080604083850312156116a3576116a2611339565b5b60006116b1858286016114aa565b92505060206116c285828601611677565b9150509250929050565b60008115159050919050565b6116e1816116cc565b82525050565b60006020820190506116fc60008301846116d8565b92915050565b60006020828403121561171857611717611339565b5b6000611726848285016114aa565b91505092915050565b61173881611489565b82525050565b600081519050919050565b600082825260208201905092915050565b60005b8381101561177857808201518184015260208101905061175d565b60008484015250505050565b600061178f8261173e565b6117998185611749565b93506117a981856020860161175a565b6117b28161134d565b840191505092915050565b600060a0820190506117d2600083018861172f565b81810360208301526117e48187611784565b90506117f3604083018661172f565b611800606083018561172f565b61180d60808301846116d8565b9695505050505050565b611820816116cc565b811461182b57600080fd5b50565b60008135905061183d81611817565b92915050565b60008060006060848603121561185c5761185b611339565b5b600061186a868287016114aa565b935050602061187b86828701611677565b925050604061188c8682870161182e565b9150509250925092565b600080604083850312156118ad576118ac611339565b5b60006118bb858286016114aa565b92505060206118cc858286016114aa565b9150509250929050565b60006020820190506118eb600083018461172f565b92915050565b60006020828403121561190757611906611339565b5b600061191584828501611677565b91505092915050565b7f4e487b7100000000000000000000000000000000000000000000000000000000600052601160045260246000fd5b600061195882611489565b91507fffffffffffffffffffffffffffffffffffffffffffffffffffffffffffffffff820361198a5761198961191e565b5b600182019050919050565b7f4e487b7100000000000000000000000000000000000000000000000000000000600052602260045260246000fd5b600060028204905060018216806119dc57607f821691505b6020821081036119ef576119ee611995565b5b50919050565b60008190508160005260206000209050919050565b60006020601f8301049050919050565b600082821b905092915050565b600060088302611a577fffffffffffffffffffffffffffffffffffffffffffffffffffffffffffffffff82611a1a565b611a618683611a1a565b95508019841693508086168417925050509392505050565b6000611a94611a8f611a8a84611489565b6115aa565b611489565b9050919050565b6000819050919050565b611aae83611a79565b611ac2611aba82611a9b565b848454611a27565b825550505050565b600090565b611ad7611aca565b611ae2818484611aa5565b505050565b5b81811015611b0657611afb600082611acf565b600181019050611ae8565b5050565b601f821115611b4b57611b1c816119f5565b611b2584611a0a565b81016020851015611b34578190505b611b48611b4085611a0a565b830182611ae7565b50505b505050565b600082821c905092915050565b6000611b6e60001984600802611b50565b1980831691505092915050565b6000611b878383611b5d565b9150826002028217905092915050565b611ba08261173e565b67ffffffffffffffff811115611bb957611bb861135e565b5b611bc382546119c4565b611bce828285611b0a565b600060209050601f831160018114611c015760008415611bef578287015190505b611bf98582611b7b565b865550611c61565b601f198416611c0f866119f5565b60005b82811015611c3757848901518255600182019150602085019450602081019050611c12565b86831015611c545784890151611c50601f891682611b5d565b8355505b6001600288020188555050505b505050505050565b60006060820190508181036000830152611c838186611784565b9050611c92602083018561172f565b611c9f604083018461172f565b949350505050565b7f4e6f742061207061727469636970616e74000000000000000000000000000000600082015250565b6000611cdd601183611749565b9150611ce882611ca7565b602082019050919050565b60006020820190508181036000830152611d0c81611cd0565b9050919050565b7f4368616c6c656e676520656e6465640000000000000000000000000000000000600082015250565b6000611d49600f83611749565b9150611d5482611d13565b602082019050919050565b60006020820190508181036000830152611d7881611d3c565b9050919050565b7f50726f6f6620616c7265616479207375626d6974746564000000000000000000600082015250565b6000611db5601783611749565b9150611dc082611d7f565b602082019050919050565b60006020820190508181036000830152611de481611da8565b9050919050565b60006020820190508181036000830152611e058184611784565b905092915050565b6000606082019050611e226000830186611636565b611e2f6020830185611636565b611e3c604083018461172f565b949350505050565b600081519050611e5381611817565b92915050565b600060208284031215611e6f57611e6e611339565b5b6000611e7d84828501611e44565b91505092915050565b7f55736572206e6f7420696e206368616c6c656e67650000000000000000000000600082015250565b6000611ebc601583611749565b9150611ec782611e86565b602082019050919050565b60006020820190508181036000830152611eeb81611eaf565b9050919050565b6000611efd82611489565b9150611f0883611489565b9250828201905080821115611f2057611f1f61191e565b5b92915050565b600081519050611f3581611493565b92915050565b600060208284031215611f5157611f50611339565b5b6000611f5f84828501611f26565b91505092915050565b7f496e73756666696369656e7420636f6e74726163742062616c616e6365000000600082015250565b6000611f9e601d83611749565b9150611fa982611f68565b602082019050919050565b60006020820190508181036000830152611fcd81611f91565b9050919050565b6000604082019050611fe96000830185611636565b611ff6602083018461172f565b9392505050565b600060408201905061201260008301856116d8565b61201f602083018461172f565b9392505050565b7f4368616c6c656e6765206e6f7420616374697665000000000000000000000000600082015250565b600061205c601483611749565b915061206782612026565b602082019050919050565b6000602082019050818103600083015261208b8161204f565b9050919050565b7f416c7265616479206a6f696e6564000000000000000000000000000000000000600082015250565b60006120c8600e83611749565b91506120d382612092565b602082019050919050565b600060208201905081810360008301526120f7816120bb565b9050919050565b7f5374616b6520746f6f206c6f7700000000000000000000000000000000000000600082015250565b6000612134600d83611749565b915061213f826120fe565b602082019050919050565b6000602082019050818103600083015261216381612127565b9050919050565b7f5374616b65207472616e73666572206661696c65640000000000000000000000600082015250565b60006121a0601583611749565b91506121ab8261216a565b602082019050919050565b600060208201905081810360008301526121cf81612193565b905091905056fea26469706673582212206fd66704a1320bcac8f12cdf29858330075b4cf220b099d4e1b6f2cc32da464564736f6c634300081c0033",
  "linkReferences": {},
  "deployedLinkReferences": {}
}